{
  "contractName": "PLCRVoting",
  "abi": [
    {
      "constant": true,
      "inputs": [],
      "name": "INITIAL_POLL_NONCE",
      "outputs": [
        {
          "name": "",
          "type": "uint256"
        }
      ],
      "payable": false,
      "stateMutability": "view",
      "type": "function"
    },
    {
      "constant": true,
      "inputs": [
        {
          "name": "",
          "type": "address"
        }
      ],
      "name": "voteTokenBalance",
      "outputs": [
        {
          "name": "",
          "type": "uint256"
        }
      ],
      "payable": false,
      "stateMutability": "view",
      "type": "function"
    },
    {
      "constant": true,
      "inputs": [
        {
          "name": "",
          "type": "uint256"
        }
      ],
      "name": "pollMap",
      "outputs": [
        {
          "name": "commitEndDate",
          "type": "uint256"
        },
        {
          "name": "revealEndDate",
          "type": "uint256"
        },
        {
          "name": "voteQuorum",
          "type": "uint256"
        },
        {
          "name": "votesFor",
          "type": "uint256"
        },
        {
          "name": "votesAgainst",
          "type": "uint256"
        }
      ],
      "payable": false,
      "stateMutability": "view",
      "type": "function"
    },
    {
      "constant": true,
      "inputs": [],
      "name": "pollNonce",
      "outputs": [
        {
          "name": "",
          "type": "uint256"
        }
      ],
      "payable": false,
      "stateMutability": "view",
      "type": "function"
    },
    {
      "constant": true,
      "inputs": [],
      "name": "token",
      "outputs": [
        {
          "name": "",
          "type": "address"
        }
      ],
      "payable": false,
      "stateMutability": "view",
      "type": "function"
    },
    {
      "anonymous": false,
      "inputs": [
        {
          "indexed": true,
          "name": "pollID",
          "type": "uint256"
        },
        {
          "indexed": false,
          "name": "numTokens",
          "type": "uint256"
        },
        {
          "indexed": true,
          "name": "voter",
          "type": "address"
        }
      ],
      "name": "_VoteCommitted",
      "type": "event"
    },
    {
      "anonymous": false,
      "inputs": [
        {
          "indexed": true,
          "name": "pollID",
          "type": "uint256"
        },
        {
          "indexed": false,
          "name": "numTokens",
          "type": "uint256"
        },
        {
          "indexed": false,
          "name": "votesFor",
          "type": "uint256"
        },
        {
          "indexed": false,
          "name": "votesAgainst",
          "type": "uint256"
        },
        {
          "indexed": true,
          "name": "choice",
          "type": "uint256"
        },
        {
          "indexed": true,
          "name": "voter",
          "type": "address"
        },
        {
          "indexed": false,
          "name": "salt",
          "type": "uint256"
        }
      ],
      "name": "_VoteRevealed",
      "type": "event"
    },
    {
      "anonymous": false,
      "inputs": [
        {
          "indexed": false,
          "name": "voteQuorum",
          "type": "uint256"
        },
        {
          "indexed": false,
          "name": "commitEndDate",
          "type": "uint256"
        },
        {
          "indexed": false,
          "name": "revealEndDate",
          "type": "uint256"
        },
        {
          "indexed": true,
          "name": "pollID",
          "type": "uint256"
        },
        {
          "indexed": true,
          "name": "creator",
          "type": "address"
        }
      ],
      "name": "_PollCreated",
      "type": "event"
    },
    {
      "anonymous": false,
      "inputs": [
        {
          "indexed": false,
          "name": "numTokens",
          "type": "uint256"
        },
        {
          "indexed": true,
          "name": "voter",
          "type": "address"
        }
      ],
      "name": "_VotingRightsGranted",
      "type": "event"
    },
    {
      "anonymous": false,
      "inputs": [
        {
          "indexed": false,
          "name": "numTokens",
          "type": "uint256"
        },
        {
          "indexed": true,
          "name": "voter",
          "type": "address"
        }
      ],
      "name": "_VotingRightsWithdrawn",
      "type": "event"
    },
    {
      "anonymous": false,
      "inputs": [
        {
          "indexed": true,
          "name": "pollID",
          "type": "uint256"
        },
        {
          "indexed": true,
          "name": "voter",
          "type": "address"
        }
      ],
      "name": "_TokensRescued",
      "type": "event"
    },
    {
      "constant": false,
      "inputs": [
        {
          "name": "_token",
          "type": "address"
        }
      ],
      "name": "init",
      "outputs": [],
      "payable": false,
      "stateMutability": "nonpayable",
      "type": "function"
    },
    {
      "constant": false,
      "inputs": [
        {
          "name": "_numTokens",
          "type": "uint256"
        }
      ],
      "name": "requestVotingRights",
      "outputs": [],
      "payable": false,
      "stateMutability": "nonpayable",
      "type": "function"
    },
    {
      "constant": false,
      "inputs": [
        {
          "name": "_numTokens",
          "type": "uint256"
        }
      ],
      "name": "withdrawVotingRights",
      "outputs": [],
      "payable": false,
      "stateMutability": "nonpayable",
      "type": "function"
    },
    {
      "constant": false,
      "inputs": [
        {
          "name": "_pollID",
          "type": "uint256"
        }
      ],
      "name": "rescueTokens",
      "outputs": [],
      "payable": false,
      "stateMutability": "nonpayable",
      "type": "function"
    },
    {
      "constant": false,
      "inputs": [
        {
          "name": "_pollIDs",
          "type": "uint256[]"
        }
      ],
      "name": "rescueTokensInMultiplePolls",
      "outputs": [],
      "payable": false,
      "stateMutability": "nonpayable",
      "type": "function"
    },
    {
      "constant": false,
      "inputs": [
        {
          "name": "_pollID",
          "type": "uint256"
        },
        {
          "name": "_secretHash",
          "type": "bytes32"
        },
        {
          "name": "_numTokens",
          "type": "uint256"
        },
        {
          "name": "_prevPollID",
          "type": "uint256"
        }
      ],
      "name": "commitVote",
      "outputs": [],
      "payable": false,
      "stateMutability": "nonpayable",
      "type": "function"
    },
    {
      "constant": false,
      "inputs": [
        {
          "name": "_pollIDs",
          "type": "uint256[]"
        },
        {
          "name": "_secretHashes",
          "type": "bytes32[]"
        },
        {
          "name": "_numsTokens",
          "type": "uint256[]"
        },
        {
          "name": "_prevPollIDs",
          "type": "uint256[]"
        }
      ],
      "name": "commitVotes",
      "outputs": [],
      "payable": false,
      "stateMutability": "nonpayable",
      "type": "function"
    },
    {
      "constant": true,
      "inputs": [
        {
          "name": "_prevID",
          "type": "uint256"
        },
        {
          "name": "_nextID",
          "type": "uint256"
        },
        {
          "name": "_voter",
          "type": "address"
        },
        {
          "name": "_numTokens",
          "type": "uint256"
        }
      ],
      "name": "validPosition",
      "outputs": [
        {
          "name": "valid",
          "type": "bool"
        }
      ],
      "payable": false,
      "stateMutability": "view",
      "type": "function"
    },
    {
      "constant": false,
      "inputs": [
        {
          "name": "_pollID",
          "type": "uint256"
        },
        {
          "name": "_voteOption",
          "type": "uint256"
        },
        {
          "name": "_salt",
          "type": "uint256"
        }
      ],
      "name": "revealVote",
      "outputs": [],
      "payable": false,
      "stateMutability": "nonpayable",
      "type": "function"
    },
    {
      "constant": false,
      "inputs": [
        {
          "name": "_pollIDs",
          "type": "uint256[]"
        },
        {
          "name": "_voteOptions",
          "type": "uint256[]"
        },
        {
          "name": "_salts",
          "type": "uint256[]"
        }
      ],
      "name": "revealVotes",
      "outputs": [],
      "payable": false,
      "stateMutability": "nonpayable",
      "type": "function"
    },
    {
      "constant": true,
      "inputs": [
        {
          "name": "_voter",
          "type": "address"
        },
        {
          "name": "_pollID",
          "type": "uint256"
        }
      ],
      "name": "getNumPassingTokens",
      "outputs": [
        {
          "name": "correctVotes",
          "type": "uint256"
        }
      ],
      "payable": false,
      "stateMutability": "view",
      "type": "function"
    },
    {
      "constant": false,
      "inputs": [
        {
          "name": "_voteQuorum",
          "type": "uint256"
        },
        {
          "name": "_commitDuration",
          "type": "uint256"
        },
        {
          "name": "_revealDuration",
          "type": "uint256"
        }
      ],
      "name": "startPoll",
      "outputs": [
        {
          "name": "pollID",
          "type": "uint256"
        }
      ],
      "payable": false,
      "stateMutability": "nonpayable",
      "type": "function"
    },
    {
      "constant": true,
      "inputs": [
        {
          "name": "_pollID",
          "type": "uint256"
        }
      ],
      "name": "isPassed",
      "outputs": [
        {
          "name": "passed",
          "type": "bool"
        }
      ],
      "payable": false,
      "stateMutability": "view",
      "type": "function"
    },
    {
      "constant": true,
      "inputs": [
        {
          "name": "_pollID",
          "type": "uint256"
        }
      ],
      "name": "getTotalNumberOfTokensForWinningOption",
      "outputs": [
        {
          "name": "numTokens",
          "type": "uint256"
        }
      ],
      "payable": false,
      "stateMutability": "view",
      "type": "function"
    },
    {
      "constant": true,
      "inputs": [
        {
          "name": "_pollID",
          "type": "uint256"
        }
      ],
      "name": "pollEnded",
      "outputs": [
        {
          "name": "ended",
          "type": "bool"
        }
      ],
      "payable": false,
      "stateMutability": "view",
      "type": "function"
    },
    {
      "constant": true,
      "inputs": [
        {
          "name": "_pollID",
          "type": "uint256"
        }
      ],
      "name": "commitPeriodActive",
      "outputs": [
        {
          "name": "active",
          "type": "bool"
        }
      ],
      "payable": false,
      "stateMutability": "view",
      "type": "function"
    },
    {
      "constant": true,
      "inputs": [
        {
          "name": "_pollID",
          "type": "uint256"
        }
      ],
      "name": "revealPeriodActive",
      "outputs": [
        {
          "name": "active",
          "type": "bool"
        }
      ],
      "payable": false,
      "stateMutability": "view",
      "type": "function"
    },
    {
      "constant": true,
      "inputs": [
        {
          "name": "_voter",
          "type": "address"
        },
        {
          "name": "_pollID",
          "type": "uint256"
        }
      ],
      "name": "didCommit",
      "outputs": [
        {
          "name": "committed",
          "type": "bool"
        }
      ],
      "payable": false,
      "stateMutability": "view",
      "type": "function"
    },
    {
      "constant": true,
      "inputs": [
        {
          "name": "_voter",
          "type": "address"
        },
        {
          "name": "_pollID",
          "type": "uint256"
        }
      ],
      "name": "didReveal",
      "outputs": [
        {
          "name": "revealed",
          "type": "bool"
        }
      ],
      "payable": false,
      "stateMutability": "view",
      "type": "function"
    },
    {
      "constant": true,
      "inputs": [
        {
          "name": "_pollID",
          "type": "uint256"
        }
      ],
      "name": "pollExists",
      "outputs": [
        {
          "name": "exists",
          "type": "bool"
        }
      ],
      "payable": false,
      "stateMutability": "view",
      "type": "function"
    },
    {
      "constant": true,
      "inputs": [
        {
          "name": "_voter",
          "type": "address"
        },
        {
          "name": "_pollID",
          "type": "uint256"
        }
      ],
      "name": "getCommitHash",
      "outputs": [
        {
          "name": "commitHash",
          "type": "bytes32"
        }
      ],
      "payable": false,
      "stateMutability": "view",
      "type": "function"
    },
    {
      "constant": true,
      "inputs": [
        {
          "name": "_voter",
          "type": "address"
        },
        {
          "name": "_pollID",
          "type": "uint256"
        }
      ],
      "name": "getNumTokens",
      "outputs": [
        {
          "name": "numTokens",
          "type": "uint256"
        }
      ],
      "payable": false,
      "stateMutability": "view",
      "type": "function"
    },
    {
      "constant": true,
      "inputs": [
        {
          "name": "_voter",
          "type": "address"
        }
      ],
      "name": "getLastNode",
      "outputs": [
        {
          "name": "pollID",
          "type": "uint256"
        }
      ],
      "payable": false,
      "stateMutability": "view",
      "type": "function"
    },
    {
      "constant": true,
      "inputs": [
        {
          "name": "_voter",
          "type": "address"
        }
      ],
      "name": "getLockedTokens",
      "outputs": [
        {
          "name": "numTokens",
          "type": "uint256"
        }
      ],
      "payable": false,
      "stateMutability": "view",
      "type": "function"
    },
    {
      "constant": true,
      "inputs": [
        {
          "name": "_voter",
          "type": "address"
        },
        {
          "name": "_numTokens",
          "type": "uint256"
        },
        {
          "name": "_pollID",
          "type": "uint256"
        }
      ],
      "name": "getInsertPointForNumTokens",
      "outputs": [
        {
          "name": "prevNode",
          "type": "uint256"
        }
      ],
      "payable": false,
      "stateMutability": "view",
      "type": "function"
    },
    {
      "constant": true,
      "inputs": [
        {
          "name": "_terminationDate",
          "type": "uint256"
        }
      ],
      "name": "isExpired",
      "outputs": [
        {
          "name": "expired",
          "type": "bool"
        }
      ],
      "payable": false,
      "stateMutability": "view",
      "type": "function"
    },
    {
      "constant": true,
      "inputs": [
        {
          "name": "_user",
          "type": "address"
        },
        {
          "name": "_pollID",
          "type": "uint256"
        }
      ],
      "name": "attrUUID",
      "outputs": [
        {
          "name": "UUID",
          "type": "bytes32"
        }
      ],
      "payable": false,
      "stateMutability": "pure",
      "type": "function"
    }
  ],
  "bytecode": "0x608060405234801561001057600080fd5b50612e5a806100206000396000f300608060405260043610610196576000357c0100000000000000000000000000000000000000000000000000000000900463ffffffff168063053e71a61461019b5780630c03fbd7146101dc57806319ab453c1461023d5780632173a10f146102805780632c052031146102ab57806332ed3d60146103165780633b9302941461036b5780633ec36b99146103c2578063427fa1d214610445578063441c77c01461049c57806349403183146104e15780636148fed5146105265780636b2d95d4146105835780636cbf9c5e146105da5780637f97e836146106295780638090f92e1461068e578063819b0293146106f957806388d21ff31461077257806397508f36146107b757806397603560146107e2578063a1103f371461080f578063a25236fe14610878578063a4439dc5146108a5578063aa7ca464146108ea578063b11d8bb81461094f578063bb11ed7e14610990578063d1382092146109f6578063d901402b14610a57578063d9548e5314610ac0578063e7b1d43c14610b05578063ee68483014610b32578063fc0c546a14610b77575b600080fd5b3480156101a757600080fd5b506101c660048036038101908080359060200190929190505050610bce565b6040518082815260200191505060405180910390f35b3480156101e857600080fd5b50610227600480360381019080803573ffffffffffffffffffffffffffffffffffffffff16906020019092919080359060200190929190505050610c2f565b6040518082815260200191505060405180910390f35b34801561024957600080fd5b5061027e600480360381019080803573ffffffffffffffffffffffffffffffffffffffff169060200190929190505050610dd7565b005b34801561028c57600080fd5b50610295610eb8565b6040518082815260200191505060405180910390f35b3480156102b757600080fd5b50610300600480360381019080803573ffffffffffffffffffffffffffffffffffffffff1690602001909291908035906020019092919080359060200190929190505050610ebd565b6040518082815260200191505060405180910390f35b34801561032257600080fd5b506103556004803603810190808035906020019092919080359060200190929190803590602001909291905050506110fc565b6040518082815260200191505060405180910390f35b34801561037757600080fd5b506103ac600480360381019080803573ffffffffffffffffffffffffffffffffffffffff169060200190929190505050611219565b6040518082815260200191505060405180910390f35b3480156103ce57600080fd5b50610443600480360381019080803590602001908201803590602001919091929391929390803590602001908201803590602001919091929391929390803590602001908201803590602001919091929391929390803590602001908201803590602001919091929391929390505050611231565b005b34801561045157600080fd5b50610486600480360381019080803573ffffffffffffffffffffffffffffffffffffffff1690602001909291905050506112f7565b6040518082815260200191505060405180910390f35b3480156104a857600080fd5b506104c7600480360381019080803590602001909291905050506113ef565b604051808215151515815260200191505060405180910390f35b3480156104ed57600080fd5b5061050c6004803603810190808035906020019092919050505061143e565b604051808215151515815260200191505060405180910390f35b34801561053257600080fd5b50610551600480360381019080803590602001909291905050506114d1565b604051808681526020018581526020018481526020018381526020018281526020019550505050505060405180910390f35b34801561058f57600080fd5b506105c4600480360381019080803573ffffffffffffffffffffffffffffffffffffffff169060200190929190505050611507565b6040518082815260200191505060405180910390f35b3480156105e657600080fd5b506106276004803603810190808035906020019092919080356000191690602001909291908035906020019092919080359060200190929190505050611522565b005b34801561063557600080fd5b50610674600480360381019080803573ffffffffffffffffffffffffffffffffffffffff16906020019092919080359060200190929190505050611cb5565b604051808215151515815260200191505060405180910390f35b34801561069a57600080fd5b506106f7600480360381019080803590602001908201803590602001919091929391929390803590602001908201803590602001919091929391929390803590602001908201803590602001919091929391929390505050611d34565b005b34801561070557600080fd5b506107586004803603810190808035906020019092919080359060200190929190803573ffffffffffffffffffffffffffffffffffffffff16906020019092919080359060200190929190505050611dcb565b604051808215151515815260200191505060405180910390f35b34801561077e57600080fd5b5061079d60048036038101908080359060200190929190505050611e0f565b604051808215151515815260200191505060405180910390f35b3480156107c357600080fd5b506107cc611e2a565b6040518082815260200191505060405180910390f35b3480156107ee57600080fd5b5061080d60048036038101908080359060200190929190505050611e30565b005b34801561081b57600080fd5b5061085a600480360381019080803573ffffffffffffffffffffffffffffffffffffffff16906020019092919080359060200190929190505050612065565b60405180826000191660001916815260200191505060405180910390f35b34801561088457600080fd5b506108a360048036038101908080359060200190929190505050612134565b005b3480156108b157600080fd5b506108d060048036038101908080359060200190929190505050612417565b604051808215151515815260200191505060405180910390f35b3480156108f657600080fd5b50610935600480360381019080803573ffffffffffffffffffffffffffffffffffffffff16906020019092919080359060200190929190505050612454565b604051808215151515815260200191505060405180910390f35b34801561095b57600080fd5b5061098e6004803603810190808035906020019092919080359060200190929190803590602001909291905050506124d3565b005b34801561099c57600080fd5b506109f4600480360381019080803590602001908201803590602001908080602002602001604051908101604052809392919081815260200183836020028082843782019150505050505091929192905050506128f5565b005b348015610a0257600080fd5b50610a41600480360381019080803573ffffffffffffffffffffffffffffffffffffffff16906020019092919080359060200190929190505050612935565b6040518082815260200191505060405180910390f35b348015610a6357600080fd5b50610aa2600480360381019080803573ffffffffffffffffffffffffffffffffffffffff16906020019092919080359060200190929190505050612a3a565b60405180826000191660001916815260200191505060405180910390f35b348015610acc57600080fd5b50610aeb60048036038101908080359060200190929190505050612b42565b604051808215151515815260200191505060405180910390f35b348015610b1157600080fd5b50610b3060048036038101908080359060200190929190505050612b4e565b005b348015610b3e57600080fd5b50610b5d60048036038101908080359060200190929190505050612d65565b604051808215151515815260200191505060405180910390f35b348015610b8357600080fd5b50610b8c612da1565b604051808273ffffffffffffffffffffffffffffffffffffffff1673ffffffffffffffffffffffffffffffffffffffff16815260200191505060405180910390f35b6000610bd982612d65565b1515610be457600080fd5b610bed8261143e565b15610c105760016000838152602001908152602001600020600301549050610c2a565b600160008381526020019081526020016000206004015490505b919050565b6000806000610c3d84612d65565b1515610c4857600080fd5b6001600085815260200190815260200160002060060160008673ffffffffffffffffffffffffffffffffffffffff1673ffffffffffffffffffffffffffffffffffffffff16815260200190815260200160002060009054906101000a900460ff161515610cb457600080fd5b610cbd8461143e565b610cc8576000610ccb565b60015b60ff1691506001600085815260200190815260200160002060070160008673ffffffffffffffffffffffffffffffffffffffff1673ffffffffffffffffffffffffffffffffffffffff1681526020019081526020016000205490508181141515610dc3576040517f08c379a00000000000000000000000000000000000000000000000000000000081526004018080602001828103825260278152602001807f566f7465722072657665616c65642c20627574206e6f7420696e20746865206d81526020017f616a6f726974790000000000000000000000000000000000000000000000000081525060400191505060405180910390fd5b610dcd8585612935565b9250505092915050565b600073ffffffffffffffffffffffffffffffffffffffff168173ffffffffffffffffffffffffffffffffffffffff1614158015610e625750600073ffffffffffffffffffffffffffffffffffffffff16600560009054906101000a900473ffffffffffffffffffffffffffffffffffffffff1673ffffffffffffffffffffffffffffffffffffffff16145b1515610e6d57600080fd5b80600560006101000a81548173ffffffffffffffffffffffffffffffffffffffff021916908373ffffffffffffffffffffffffffffffffffffffff1602179055506000808190555050565b600081565b6000806000610ecb866112f7565b9150610ed78683612935565b90505b6000821415156110ef57610eee8683612935565b90508481111515610ffa5783821415610ff257600360008773ffffffffffffffffffffffffffffffffffffffff1673ffffffffffffffffffffffffffffffffffffffff16815260200190815260200160002073__DLL___________________________________6330fe0a0a9091846040518363ffffffff167c0100000000000000000000000000000000000000000000000000000000028152600401808381526020018281526020019250505060206040518083038186803b158015610fb457600080fd5b505af4158015610fc8573d6000803e3d6000fd5b505050506040513d6020811015610fde57600080fd5b810190808051906020019092919050505091505b8192506110f3565b600360008773ffffffffffffffffffffffffffffffffffffffff1673ffffffffffffffffffffffffffffffffffffffff16815260200190815260200160002073__DLL___________________________________6330fe0a0a9091846040518363ffffffff167c0100000000000000000000000000000000000000000000000000000000028152600401808381526020018281526020019250505060206040518083038186803b1580156110ad57600080fd5b505af41580156110c1573d6000803e3d6000fd5b505050506040513d60208110156110d757600080fd5b81019080805190602001909291905050509150610eda565b8192505b50509392505050565b60008060006001600054016000819055506111208542612dc790919063ffffffff16565b91506111358483612dc790919063ffffffff16565b905060a060405190810160405280838152602001828152602001878152602001600081526020016000815250600160008054815260200190815260200160002060008201518160000155602082015181600101556040820151816002015560608201518160030155608082015181600401559050503373ffffffffffffffffffffffffffffffffffffffff166000547f404f1f1c229d9eb2a949e7584da6ffde9d059ef2169f487ca815434cce0640d088858560405180848152602001838152602001828152602001935050505060405180910390a3600054925050509392505050565b60026020528060005260406000206000915090505481565b6000868690508989905014151561124757600080fd5b848490508989905014151561125b57600080fd5b828290508989905014151561126f57600080fd5b600090505b888890508110156112ec576112df898983818110151561129057fe5b9050602002013588888481811015156112a557fe5b905060200201356000191687878581811015156112be57fe5b9050602002013586868681811015156112d357fe5b90506020020135611522565b8080600101915050611274565b505050505050505050565b6000600360008373ffffffffffffffffffffffffffffffffffffffff1673ffffffffffffffffffffffffffffffffffffffff16815260200190815260200160002073__DLL___________________________________6330fe0a0a909160006040518363ffffffff167c0100000000000000000000000000000000000000000000000000000000028152600401808381526020018281526020019250505060206040518083038186803b1580156113ad57600080fd5b505af41580156113c1573d6000803e3d6000fd5b505050506040513d60208110156113d757600080fd5b81019080805190602001909291905050509050919050565b60006113fa82611e0f565b151561140557600080fd5b6114246001600084815260200190815260200160002060010154612b42565b158015611437575061143582612417565b155b9050919050565b6000611448612dfe565b61145183612d65565b151561145c57600080fd5b6001600084815260200190815260200160002060a060405190810160405290816000820154815260200160018201548152602001600282015481526020016003820154815260200160048201548152505090508060800151816060015101816040015102816060015160640211915050919050565b60016020528060005260406000206000915090508060000154908060010154908060020154908060030154908060040154905085565b600061151b82611516846112f7565b612935565b9050919050565b600080600061153087612417565b151561153b57600080fd5b84600260003373ffffffffffffffffffffffffffffffffffffffff1673ffffffffffffffffffffffffffffffffffffffff1681526020019081526020016000205410156115e0576115d4600260003373ffffffffffffffffffffffffffffffffffffffff1673ffffffffffffffffffffffffffffffffffffffff1681526020019081526020016000205486612de590919063ffffffff16565b92506115df83612134565b5b84600260003373ffffffffffffffffffffffffffffffffffffffff1673ffffffffffffffffffffffffffffffffffffffff168152602001908152602001600020541015151561162e57600080fd5b6000871415151561163e57600080fd5b600060010286600019161415151561165557600080fd5b600084148061174e5750600360003373ffffffffffffffffffffffffffffffffffffffff1673ffffffffffffffffffffffffffffffffffffffff16815260200190815260200160002073__DLL___________________________________63366a5ba29091866040518363ffffffff167c0100000000000000000000000000000000000000000000000000000000028152600401808381526020018281526020019250505060206040518083038186803b15801561171257600080fd5b505af4158015611726573d6000803e3d6000fd5b505050506040513d602081101561173c57600080fd5b81019080805190602001909291905050505b151561175957600080fd5b600360003373ffffffffffffffffffffffffffffffffffffffff1673ffffffffffffffffffffffffffffffffffffffff16815260200190815260200160002073__DLL___________________________________6307d29ac99091866040518363ffffffff167c0100000000000000000000000000000000000000000000000000000000028152600401808381526020018281526020019250505060206040518083038186803b15801561180c57600080fd5b505af4158015611820573d6000803e3d6000fd5b505050506040513d602081101561183657600080fd5b810190808051906020019092919050505091508682141561194257600360003373ffffffffffffffffffffffffffffffffffffffff1673ffffffffffffffffffffffffffffffffffffffff16815260200190815260200160002073__DLL___________________________________6307d29ac99091896040518363ffffffff167c0100000000000000000000000000000000000000000000000000000000028152600401808381526020018281526020019250505060206040518083038186803b15801561190457600080fd5b505af4158015611918573d6000803e3d6000fd5b505050506040513d602081101561192e57600080fd5b810190808051906020019092919050505091505b61194e84833388611dcb565b151561195957600080fd5b600360003373ffffffffffffffffffffffffffffffffffffffff1673ffffffffffffffffffffffffffffffffffffffff16815260200190815260200160002073__DLL___________________________________639735c51b9091868a866040518563ffffffff167c01000000000000000000000000000000000000000000000000000000000281526004018085815260200184815260200183815260200182815260200194505050505060006040518083038186803b158015611a1c57600080fd5b505af4158015611a30573d6000803e3d6000fd5b50505050611a3e3388612065565b9050600473__AttributeStore________________________63977aa031909183886040518463ffffffff167c010000000000000000000000000000000000000000000000000000000002815260040180848152602001836000191660001916815260200180602001838152602001828103825260098152602001807f6e756d546f6b656e73000000000000000000000000000000000000000000000081525060200194505050505060006040518083038186803b158015611aff57600080fd5b505af4158015611b13573d6000803e3d6000fd5b50505050600473__AttributeStore________________________63977aa03190918389600190046040518463ffffffff167c0100000000000000000000000000000000000000000000000000000000028152600401808481526020018360001916600019168152602001806020018381526020018281038252600a8152602001807f636f6d6d6974486173680000000000000000000000000000000000000000000081525060200194505050505060006040518083038186803b158015611bda57600080fd5b505af4158015611bee573d6000803e3d6000fd5b50505050600180600089815260200190815260200160002060050160003373ffffffffffffffffffffffffffffffffffffffff1673ffffffffffffffffffffffffffffffffffffffff16815260200190815260200160002060006101000a81548160ff0219169083151502179055503373ffffffffffffffffffffffffffffffffffffffff16877fea7979e4280d7e6bffc1c7d83a1ac99f16d02ecc14465ce41016226783b663d7876040518082815260200191505060405180910390a350505050505050565b6000611cc082611e0f565b1515611ccb57600080fd5b6001600083815260200190815260200160002060050160008473ffffffffffffffffffffffffffffffffffffffff1673ffffffffffffffffffffffffffffffffffffffff16815260200190815260200160002060009054906101000a900460ff16905092915050565b60008484905087879050141515611d4a57600080fd5b8282905087879050141515611d5e57600080fd5b600090505b86869050811015611dc257611db58787838181101515611d7f57fe5b905060200201358686848181101515611d9457fe5b905060200201358585858181101515611da957fe5b905060200201356124d3565b8080600101915050611d63565b50505050505050565b6000806000611dda8588612935565b8410159150611de98587612935565b84111580611df75750600086145b9050818015611e035750805b92505050949350505050565b6000808214158015611e2357506000548211155b9050919050565b60005481565b611e4f6001600083815260200190815260200160002060010154612b42565b1515611e5a57600080fd5b600360003373ffffffffffffffffffffffffffffffffffffffff1673ffffffffffffffffffffffffffffffffffffffff16815260200190815260200160002073__DLL___________________________________63366a5ba29091836040518363ffffffff167c0100000000000000000000000000000000000000000000000000000000028152600401808381526020018281526020019250505060206040518083038186803b158015611f0d57600080fd5b505af4158015611f21573d6000803e3d6000fd5b505050506040513d6020811015611f3757600080fd5b81019080805190602001909291905050501515611f5357600080fd5b600360003373ffffffffffffffffffffffffffffffffffffffff1673ffffffffffffffffffffffffffffffffffffffff16815260200190815260200160002073__DLL___________________________________636d900ed09091836040518363ffffffff167c0100000000000000000000000000000000000000000000000000000000028152600401808381526020018281526020019250505060006040518083038186803b15801561200657600080fd5b505af415801561201a573d6000803e3d6000fd5b505050503373ffffffffffffffffffffffffffffffffffffffff16817f402507661c8c8cb90e0a796450b8bdd28b6c516f05279c0cd29e84c344e1699a60405160405180910390a350565b60008282604051602001808373ffffffffffffffffffffffffffffffffffffffff1673ffffffffffffffffffffffffffffffffffffffff166c01000000000000000000000000028152601401828152602001925050506040516020818303038152906040526040518082805190602001908083835b6020831015156120ff57805182526020820191506020810190506020830392506120da565b6001836020036101000a0380198251168184511680821785525050505050509050019150506040518091039020905092915050565b80600560009054906101000a900473ffffffffffffffffffffffffffffffffffffffff1673ffffffffffffffffffffffffffffffffffffffff166370a08231336040518263ffffffff167c0100000000000000000000000000000000000000000000000000000000028152600401808273ffffffffffffffffffffffffffffffffffffffff1673ffffffffffffffffffffffffffffffffffffffff168152602001915050602060405180830381600087803b1580156121f257600080fd5b505af1158015612206573d6000803e3d6000fd5b505050506040513d602081101561221c57600080fd5b81019080805190602001909291905050501015151561223a57600080fd5b80600260003373ffffffffffffffffffffffffffffffffffffffff1673ffffffffffffffffffffffffffffffffffffffff16815260200190815260200160002060008282540192505081905550600560009054906101000a900473ffffffffffffffffffffffffffffffffffffffff1673ffffffffffffffffffffffffffffffffffffffff166323b872dd3330846040518463ffffffff167c0100000000000000000000000000000000000000000000000000000000028152600401808473ffffffffffffffffffffffffffffffffffffffff1673ffffffffffffffffffffffffffffffffffffffff1681526020018373ffffffffffffffffffffffffffffffffffffffff1673ffffffffffffffffffffffffffffffffffffffff1681526020018281526020019350505050602060405180830381600087803b15801561238057600080fd5b505af1158015612394573d6000803e3d6000fd5b505050506040513d60208110156123aa57600080fd5b810190808051906020019092919050505015156123c657600080fd5b3373ffffffffffffffffffffffffffffffffffffffff167ff7aaf024511d9982df8cd0d437c71c30106e6848cd1ba3d288d7a9c0e276aeda826040518082815260200191505060405180910390a250565b600061242282611e0f565b151561242d57600080fd5b61244c6001600084815260200190815260200160002060000154612b42565b159050919050565b600061245f82611e0f565b151561246a57600080fd5b6001600083815260200190815260200160002060060160008473ffffffffffffffffffffffffffffffffffffffff1673ffffffffffffffffffffffffffffffffffffffff16815260200190815260200160002060009054906101000a900460ff16905092915050565b60006124de846113ef565b15156124e957600080fd5b6001600085815260200190815260200160002060050160003373ffffffffffffffffffffffffffffffffffffffff1673ffffffffffffffffffffffffffffffffffffffff16815260200190815260200160002060009054906101000a900460ff16151561255557600080fd5b6001600085815260200190815260200160002060060160003373ffffffffffffffffffffffffffffffffffffffff1673ffffffffffffffffffffffffffffffffffffffff16815260200190815260200160002060009054906101000a900460ff161515156125c257600080fd5b6125cc3385612a3a565b60001916838360405160200180838152602001828152602001925050506040516020818303038152906040526040518082805190602001908083835b60208310151561262d5780518252602082019150602081019050602083039250612608565b6001836020036101000a03801982511681845116808217855250505050505090500191505060405180910390206000191614151561266a57600080fd5b6126743385612935565b905060018314156126a8578060016000868152602001908152602001600020600301600082825401925050819055506126cd565b8060016000868152602001908152602001600020600401600082825401925050819055505b600360003373ffffffffffffffffffffffffffffffffffffffff1673ffffffffffffffffffffffffffffffffffffffff16815260200190815260200160002073__DLL___________________________________636d900ed09091866040518363ffffffff167c0100000000000000000000000000000000000000000000000000000000028152600401808381526020018281526020019250505060006040518083038186803b15801561278057600080fd5b505af4158015612794573d6000803e3d6000fd5b50505050600180600086815260200190815260200160002060060160003373ffffffffffffffffffffffffffffffffffffffff1673ffffffffffffffffffffffffffffffffffffffff16815260200190815260200160002060006101000a81548160ff021916908315150217905550826001600086815260200190815260200160002060070160003373ffffffffffffffffffffffffffffffffffffffff1673ffffffffffffffffffffffffffffffffffffffff168152602001908152602001600020819055503373ffffffffffffffffffffffffffffffffffffffff1683857f9b19aaec524fad29c0ced9b9973a15e3045d7c3be156d71394ab40f0d5f119ff84600160008a815260200190815260200160002060030154600160008b815260200190815260200160002060040154886040518085815260200184815260200183815260200182815260200194505050505060405180910390a450505050565b60008090505b815181101561293157612924828281518110151561291557fe5b90602001906020020151611e30565b80806001019150506128fb565b5050565b6000600473__AttributeStore________________________6350389f5c909161295f8686612065565b6040518363ffffffff167c010000000000000000000000000000000000000000000000000000000002815260040180838152602001826000191660001916815260200180602001828103825260098152602001807f6e756d546f6b656e730000000000000000000000000000000000000000000000815250602001935050505060206040518083038186803b1580156129f757600080fd5b505af4158015612a0b573d6000803e3d6000fd5b505050506040513d6020811015612a2157600080fd5b8101908080519060200190929190505050905092915050565b6000600473__AttributeStore________________________6350389f5c9091612a648686612065565b6040518363ffffffff167c0100000000000000000000000000000000000000000000000000000000028152600401808381526020018260001916600019168152602001806020018281038252600a8152602001807f636f6d6d69744861736800000000000000000000000000000000000000000000815250602001935050505060206040518083038186803b158015612afc57600080fd5b505af4158015612b10573d6000803e3d6000fd5b505050506040513d6020811015612b2657600080fd5b8101908080519060200190929190505050600102905092915050565b60008142119050919050565b6000612baa612b5c33611507565b600260003373ffffffffffffffffffffffffffffffffffffffff1673ffffffffffffffffffffffffffffffffffffffff16815260200190815260200160002054612de590919063ffffffff16565b9050818110151515612bbb57600080fd5b81600260003373ffffffffffffffffffffffffffffffffffffffff1673ffffffffffffffffffffffffffffffffffffffff16815260200190815260200160002060008282540392505081905550600560009054906101000a900473ffffffffffffffffffffffffffffffffffffffff1673ffffffffffffffffffffffffffffffffffffffff1663a9059cbb33846040518363ffffffff167c0100000000000000000000000000000000000000000000000000000000028152600401808373ffffffffffffffffffffffffffffffffffffffff1673ffffffffffffffffffffffffffffffffffffffff16815260200182815260200192505050602060405180830381600087803b158015612ccd57600080fd5b505af1158015612ce1573d6000803e3d6000fd5b505050506040513d6020811015612cf757600080fd5b81019080805190602001909291905050501515612d1357600080fd5b3373ffffffffffffffffffffffffffffffffffffffff167ffaeb7dbb9992397d26ea1944efd40c80b40f702faf69b46c67ad10aba68ccb79836040518082815260200191505060405180910390a25050565b6000612d7082611e0f565b1515612d7b57600080fd5b612d9a6001600084815260200190815260200160002060010154612b42565b9050919050565b600560009054906101000a900473ffffffffffffffffffffffffffffffffffffffff1681565b6000808284019050838110151515612ddb57fe5b8091505092915050565b6000828211151515612df357fe5b818303905092915050565b60a060405190810160405280600081526020016000815260200160008152602001600081526020016000815250905600a165627a7a723058205656a371e067520ed3a1b4203901c3d6afbd3683d61b664e7cfefd5c2d2f893d0029",
  "source": "pragma solidity ^0.4.8;\nimport \"tokens/eip20/EIP20Interface.sol\";\nimport \"dll/DLL.sol\";\nimport \"attrstore/AttributeStore.sol\";\nimport \"zeppelin/math/SafeMath.sol\";\n\n/**\n@title Partial-Lock-Commit-Reveal Voting scheme with ERC20 tokens\n@author Team: Aspyn Palatnick, Cem Ozer, Yorke Rhodes\n*/\ncontract PLCRVoting {\n\n    // ============\n    // EVENTS:\n    // ============\n\n    event _VoteCommitted(uint indexed pollID, uint numTokens, address indexed voter);\n    event _VoteRevealed(uint indexed pollID, uint numTokens, uint votesFor, uint votesAgainst, uint indexed choice, address indexed voter, uint salt);\n    event _PollCreated(uint voteQuorum, uint commitEndDate, uint revealEndDate, uint indexed pollID, address indexed creator);\n    event _VotingRightsGranted(uint numTokens, address indexed voter);\n    event _VotingRightsWithdrawn(uint numTokens, address indexed voter);\n    event _TokensRescued(uint indexed pollID, address indexed voter);\n\n    // ============\n    // DATA STRUCTURES:\n    // ============\n\n    using AttributeStore for AttributeStore.Data;\n    using DLL for DLL.Data;\n    using SafeMath for uint;\n\n    struct Poll {\n        uint commitEndDate;     /// expiration date of commit period for poll\n        uint revealEndDate;     /// expiration date of reveal period for poll\n        uint voteQuorum;\t    /// number of votes required for a proposal to pass\n        uint votesFor;\t\t    /// tally of votes supporting proposal\n        uint votesAgainst;      /// tally of votes countering proposal\n        mapping(address => bool) didCommit;   /// indicates whether an address committed a vote for this poll\n        mapping(address => bool) didReveal;   /// indicates whether an address revealed a vote for this poll\n        mapping(address => uint) voteOptions; /// stores the voteOption of an address that revealed\n    }\n\n    // ============\n    // STATE VARIABLES:\n    // ============\n\n    uint constant public INITIAL_POLL_NONCE = 0;\n    uint public pollNonce;\n\n    mapping(uint => Poll) public pollMap; // maps pollID to Poll struct\n    mapping(address => uint) public voteTokenBalance; // maps user's address to voteToken balance\n\n    mapping(address => DLL.Data) dllMap;\n    AttributeStore.Data store;\n\n    EIP20Interface public token;\n\n    /**\n    @dev Initializer. Can only be called once.\n    @param _token The address where the ERC20 token contract is deployed\n    */\n    function init(address _token) public {\n        require(_token != address(0) && address(token) == address(0));\n\n        token = EIP20Interface(_token);\n        pollNonce = INITIAL_POLL_NONCE;\n    }\n\n    // ================\n    // TOKEN INTERFACE:\n    // ================\n\n    /**\n    @notice Loads _numTokens ERC20 tokens into the voting contract for one-to-one voting rights\n    @dev Assumes that msg.sender has approved voting contract to spend on their behalf\n    @param _numTokens The number of votingTokens desired in exchange for ERC20 tokens\n    */\n    function requestVotingRights(uint _numTokens) public {\n        require(token.balanceOf(msg.sender) >= _numTokens);\n        voteTokenBalance[msg.sender] += _numTokens;\n        require(token.transferFrom(msg.sender, this, _numTokens));\n        emit _VotingRightsGranted(_numTokens, msg.sender);\n    }\n\n    /**\n    @notice Withdraw _numTokens ERC20 tokens from the voting contract, revoking these voting rights\n    @param _numTokens The number of ERC20 tokens desired in exchange for voting rights\n    */\n    function withdrawVotingRights(uint _numTokens) external {\n        uint availableTokens = voteTokenBalance[msg.sender].sub(getLockedTokens(msg.sender));\n        require(availableTokens >= _numTokens);\n        voteTokenBalance[msg.sender] -= _numTokens;\n        require(token.transfer(msg.sender, _numTokens));\n        emit _VotingRightsWithdrawn(_numTokens, msg.sender);\n    }\n\n    /**\n    @dev Unlocks tokens locked in unrevealed vote where poll has ended\n    @param _pollID Integer identifier associated with the target poll\n    */\n    function rescueTokens(uint _pollID) public {\n        require(isExpired(pollMap[_pollID].revealEndDate));\n        require(dllMap[msg.sender].contains(_pollID));\n\n        dllMap[msg.sender].remove(_pollID);\n        emit _TokensRescued(_pollID, msg.sender);\n    }\n\n    /**\n    @dev Unlocks tokens locked in unrevealed votes where polls have ended\n    @param _pollIDs Array of integer identifiers associated with the target polls\n    */\n    function rescueTokensInMultiplePolls(uint[] _pollIDs) public {\n        // loop through arrays, rescuing tokens from all\n        for (uint i = 0; i < _pollIDs.length; i++) {\n            rescueTokens(_pollIDs[i]);\n        }\n    }\n\n    // =================\n    // VOTING INTERFACE:\n    // =================\n\n    /**\n    @notice Commits vote using hash of choice and secret salt to conceal vote until reveal\n    @param _pollID Integer identifier associated with target poll\n    @param _secretHash Commit keccak256 hash of voter's choice and salt (tightly packed in this order)\n    @param _numTokens The number of tokens to be committed towards the target poll\n    @param _prevPollID The ID of the poll that the user has voted the maximum number of tokens in which is still less than or equal to numTokens\n    */\n    function commitVote(uint _pollID, bytes32 _secretHash, uint _numTokens, uint _prevPollID) public {\n        require(commitPeriodActive(_pollID));\n\n        // if msg.sender doesn't have enough voting rights,\n        // request for enough voting rights\n        if (voteTokenBalance[msg.sender] < _numTokens) {\n            uint remainder = _numTokens.sub(voteTokenBalance[msg.sender]);\n            requestVotingRights(remainder);\n        }\n\n        // make sure msg.sender has enough voting rights\n        require(voteTokenBalance[msg.sender] >= _numTokens);\n        // prevent user from committing to zero node placeholder\n        require(_pollID != 0);\n        // prevent user from committing a secretHash of 0\n        require(_secretHash != 0);\n\n        // Check if _prevPollID exists in the user's DLL or if _prevPollID is 0\n        require(_prevPollID == 0 || dllMap[msg.sender].contains(_prevPollID));\n\n        uint nextPollID = dllMap[msg.sender].getNext(_prevPollID);\n\n        // edge case: in-place update\n        if (nextPollID == _pollID) {\n            nextPollID = dllMap[msg.sender].getNext(_pollID);\n        }\n\n        require(validPosition(_prevPollID, nextPollID, msg.sender, _numTokens));\n        dllMap[msg.sender].insert(_prevPollID, _pollID, nextPollID);\n\n        bytes32 UUID = attrUUID(msg.sender, _pollID);\n\n        store.setAttribute(UUID, \"numTokens\", _numTokens);\n        store.setAttribute(UUID, \"commitHash\", uint(_secretHash));\n\n        pollMap[_pollID].didCommit[msg.sender] = true;\n        emit _VoteCommitted(_pollID, _numTokens, msg.sender);\n    }\n\n    /**\n    @notice                 Commits votes using hashes of choices and secret salts to conceal votes until reveal\n    @param _pollIDs         Array of integer identifiers associated with target polls\n    @param _secretHashes    Array of commit keccak256 hashes of voter's choices and salts (tightly packed in this order)\n    @param _numsTokens      Array of numbers of tokens to be committed towards the target polls\n    @param _prevPollIDs     Array of IDs of the polls that the user has voted the maximum number of tokens in which is still less than or equal to numTokens\n    */\n    function commitVotes(uint[] _pollIDs, bytes32[] _secretHashes, uint[] _numsTokens, uint[] _prevPollIDs) external {\n        // make sure the array lengths are all the same\n        require(_pollIDs.length == _secretHashes.length);\n        require(_pollIDs.length == _numsTokens.length);\n        require(_pollIDs.length == _prevPollIDs.length);\n\n        // loop through arrays, committing each individual vote values\n        for (uint i = 0; i < _pollIDs.length; i++) {\n            commitVote(_pollIDs[i], _secretHashes[i], _numsTokens[i], _prevPollIDs[i]);\n        }\n    }\n\n    /**\n    @dev Compares previous and next poll's committed tokens for sorting purposes\n    @param _prevID Integer identifier associated with previous poll in sorted order\n    @param _nextID Integer identifier associated with next poll in sorted order\n    @param _voter Address of user to check DLL position for\n    @param _numTokens The number of tokens to be committed towards the poll (used for sorting)\n    @return valid Boolean indication of if the specified position maintains the sort\n    */\n    function validPosition(uint _prevID, uint _nextID, address _voter, uint _numTokens) public constant returns (bool valid) {\n        bool prevValid = (_numTokens >= getNumTokens(_voter, _prevID));\n        // if next is zero node, _numTokens does not need to be greater\n        bool nextValid = (_numTokens <= getNumTokens(_voter, _nextID) || _nextID == 0);\n        return prevValid && nextValid;\n    }\n\n    /**\n    @notice Reveals vote with choice and secret salt used in generating commitHash to attribute committed tokens\n    @param _pollID Integer identifier associated with target poll\n    @param _voteOption Vote choice used to generate commitHash for associated poll\n    @param _salt Secret number used to generate commitHash for associated poll\n    */\n    function revealVote(uint _pollID, uint _voteOption, uint _salt) public {\n        // Make sure the reveal period is active\n        require(revealPeriodActive(_pollID));\n        require(pollMap[_pollID].didCommit[msg.sender]);                         // make sure user has committed a vote for this poll\n        require(!pollMap[_pollID].didReveal[msg.sender]);                        // prevent user from revealing multiple times\n        require(keccak256(abi.encodePacked(_voteOption, _salt)) == getCommitHash(msg.sender, _pollID)); // compare resultant hash from inputs to original commitHash\n\n        uint numTokens = getNumTokens(msg.sender, _pollID);\n\n        if (_voteOption == 1) {// apply numTokens to appropriate poll choice\n            pollMap[_pollID].votesFor += numTokens;\n        } else {\n            pollMap[_pollID].votesAgainst += numTokens;\n        }\n\n        dllMap[msg.sender].remove(_pollID); // remove the node referring to this vote upon reveal\n        pollMap[_pollID].didReveal[msg.sender] = true;\n        pollMap[_pollID].voteOptions[msg.sender] = _voteOption;\n\n        emit _VoteRevealed(_pollID, numTokens, pollMap[_pollID].votesFor, pollMap[_pollID].votesAgainst, _voteOption, msg.sender, _salt);\n    }\n\n    /**\n    @notice             Reveals multiple votes with choices and secret salts used in generating commitHashes to attribute committed tokens\n    @param _pollIDs     Array of integer identifiers associated with target polls\n    @param _voteOptions Array of vote choices used to generate commitHashes for associated polls\n    @param _salts       Array of secret numbers used to generate commitHashes for associated polls\n    */\n    function revealVotes(uint[] _pollIDs, uint[] _voteOptions, uint[] _salts) external {\n        // make sure the array lengths are all the same\n        require(_pollIDs.length == _voteOptions.length);\n        require(_pollIDs.length == _salts.length);\n\n        // loop through arrays, revealing each individual vote values\n        for (uint i = 0; i < _pollIDs.length; i++) {\n            revealVote(_pollIDs[i], _voteOptions[i], _salts[i]);\n        }\n    }\n\n    /**\n    @param _voter           Address of voter who voted in the majority bloc\n    @param _pollID          Integer identifier associated with target poll\n    @return correctVotes    Number of tokens voted for winning option\n    */\n    function getNumPassingTokens(address _voter, uint _pollID) public constant returns (uint correctVotes) {\n        require(pollEnded(_pollID));\n        require(pollMap[_pollID].didReveal[_voter]);\n\n        uint winningChoice = isPassed(_pollID) ? 1 : 0;\n        uint voterVoteOption = pollMap[_pollID].voteOptions[_voter];\n\n        require(voterVoteOption == winningChoice, \"Voter revealed, but not in the majority\");\n\n        return getNumTokens(_voter, _pollID);\n    }\n\n    // ==================\n    // POLLING INTERFACE:\n    // ==================\n\n    /**\n    @dev Initiates a poll with canonical configured parameters at pollID emitted by PollCreated event\n    @param _voteQuorum Type of majority (out of 100) that is necessary for poll to be successful\n    @param _commitDuration Length of desired commit period in seconds\n    @param _revealDuration Length of desired reveal period in seconds\n    */\n    function startPoll(uint _voteQuorum, uint _commitDuration, uint _revealDuration) public returns (uint pollID) {\n        pollNonce = pollNonce + 1;\n\n        uint commitEndDate = block.timestamp.add(_commitDuration);\n        uint revealEndDate = commitEndDate.add(_revealDuration);\n\n        pollMap[pollNonce] = Poll({\n            voteQuorum: _voteQuorum,\n            commitEndDate: commitEndDate,\n            revealEndDate: revealEndDate,\n            votesFor: 0,\n            votesAgainst: 0\n        });\n\n        emit _PollCreated(_voteQuorum, commitEndDate, revealEndDate, pollNonce, msg.sender);\n        return pollNonce;\n    }\n\n    /**\n    @notice Determines if proposal has passed\n    @dev Check if votesFor out of totalVotes exceeds votesQuorum (requires pollEnded)\n    @param _pollID Integer identifier associated with target poll\n    */\n    function isPassed(uint _pollID) constant public returns (bool passed) {\n        require(pollEnded(_pollID));\n\n        Poll memory poll = pollMap[_pollID];\n        return (100 * poll.votesFor) > (poll.voteQuorum * (poll.votesFor + poll.votesAgainst));\n    }\n\n    // ----------------\n    // POLLING HELPERS:\n    // ----------------\n\n    /**\n    @dev Gets the total winning votes for reward distribution purposes\n    @param _pollID Integer identifier associated with target poll\n    @return Total number of votes committed to the winning option for specified poll\n    */\n    function getTotalNumberOfTokensForWinningOption(uint _pollID) constant public returns (uint numTokens) {\n        require(pollEnded(_pollID));\n\n        if (isPassed(_pollID))\n            return pollMap[_pollID].votesFor;\n        else\n            return pollMap[_pollID].votesAgainst;\n    }\n\n    /**\n    @notice Determines if poll is over\n    @dev Checks isExpired for specified poll's revealEndDate\n    @return Boolean indication of whether polling period is over\n    */\n    function pollEnded(uint _pollID) constant public returns (bool ended) {\n        require(pollExists(_pollID));\n\n        return isExpired(pollMap[_pollID].revealEndDate);\n    }\n\n    /**\n    @notice Checks if the commit period is still active for the specified poll\n    @dev Checks isExpired for the specified poll's commitEndDate\n    @param _pollID Integer identifier associated with target poll\n    @return Boolean indication of isCommitPeriodActive for target poll\n    */\n    function commitPeriodActive(uint _pollID) constant public returns (bool active) {\n        require(pollExists(_pollID));\n\n        return !isExpired(pollMap[_pollID].commitEndDate);\n    }\n\n    /**\n    @notice Checks if the reveal period is still active for the specified poll\n    @dev Checks isExpired for the specified poll's revealEndDate\n    @param _pollID Integer identifier associated with target poll\n    */\n    function revealPeriodActive(uint _pollID) constant public returns (bool active) {\n        require(pollExists(_pollID));\n\n        return !isExpired(pollMap[_pollID].revealEndDate) && !commitPeriodActive(_pollID);\n    }\n\n    /**\n    @dev Checks if user has committed for specified poll\n    @param _voter Address of user to check against\n    @param _pollID Integer identifier associated with target poll\n    @return Boolean indication of whether user has committed\n    */\n    function didCommit(address _voter, uint _pollID) constant public returns (bool committed) {\n        require(pollExists(_pollID));\n\n        return pollMap[_pollID].didCommit[_voter];\n    }\n\n    /**\n    @dev Checks if user has revealed for specified poll\n    @param _voter Address of user to check against\n    @param _pollID Integer identifier associated with target poll\n    @return Boolean indication of whether user has revealed\n    */\n    function didReveal(address _voter, uint _pollID) constant public returns (bool revealed) {\n        require(pollExists(_pollID));\n\n        return pollMap[_pollID].didReveal[_voter];\n    }\n\n    /**\n    @dev Checks if a poll exists\n    @param _pollID The pollID whose existance is to be evaluated.\n    @return Boolean Indicates whether a poll exists for the provided pollID\n    */\n    function pollExists(uint _pollID) constant public returns (bool exists) {\n        return (_pollID != 0 && _pollID <= pollNonce);\n    }\n\n    // ---------------------------\n    // DOUBLE-LINKED-LIST HELPERS:\n    // ---------------------------\n\n    /**\n    @dev Gets the bytes32 commitHash property of target poll\n    @param _voter Address of user to check against\n    @param _pollID Integer identifier associated with target poll\n    @return Bytes32 hash property attached to target poll\n    */\n    function getCommitHash(address _voter, uint _pollID) constant public returns (bytes32 commitHash) {\n        return bytes32(store.getAttribute(attrUUID(_voter, _pollID), \"commitHash\"));\n    }\n\n    /**\n    @dev Wrapper for getAttribute with attrName=\"numTokens\"\n    @param _voter Address of user to check against\n    @param _pollID Integer identifier associated with target poll\n    @return Number of tokens committed to poll in sorted poll-linked-list\n    */\n    function getNumTokens(address _voter, uint _pollID) constant public returns (uint numTokens) {\n        return store.getAttribute(attrUUID(_voter, _pollID), \"numTokens\");\n    }\n\n    /**\n    @dev Gets top element of sorted poll-linked-list\n    @param _voter Address of user to check against\n    @return Integer identifier to poll with maximum number of tokens committed to it\n    */\n    function getLastNode(address _voter) constant public returns (uint pollID) {\n        return dllMap[_voter].getPrev(0);\n    }\n\n    /**\n    @dev Gets the numTokens property of getLastNode\n    @param _voter Address of user to check against\n    @return Maximum number of tokens committed in poll specified\n    */\n    function getLockedTokens(address _voter) constant public returns (uint numTokens) {\n        return getNumTokens(_voter, getLastNode(_voter));\n    }\n\n    /*\n    @dev Takes the last node in the user's DLL and iterates backwards through the list searching\n    for a node with a value less than or equal to the provided _numTokens value. When such a node\n    is found, if the provided _pollID matches the found nodeID, this operation is an in-place\n    update. In that case, return the previous node of the node being updated. Otherwise return the\n    first node that was found with a value less than or equal to the provided _numTokens.\n    @param _voter The voter whose DLL will be searched\n    @param _numTokens The value for the numTokens attribute in the node to be inserted\n    @return the node which the propoded node should be inserted after\n    */\n    function getInsertPointForNumTokens(address _voter, uint _numTokens, uint _pollID)\n    constant public returns (uint prevNode) {\n        // Get the last node in the list and the number of tokens in that node\n        uint nodeID = getLastNode(_voter);\n        uint tokensInNode = getNumTokens(_voter, nodeID);\n\n        // Iterate backwards through the list until reaching the root node\n        while(nodeID != 0) {\n            // Get the number of tokens in the current node\n            tokensInNode = getNumTokens(_voter, nodeID);\n            if(tokensInNode <= _numTokens) { // We found the insert point!\n                if(nodeID == _pollID) {\n                    // This is an in-place update. Return the prev node of the node being updated\n                    nodeID = dllMap[_voter].getPrev(nodeID);\n                }\n                // Return the insert point\n                return nodeID; \n            }\n            // We did not find the insert point. Continue iterating backwards through the list\n            nodeID = dllMap[_voter].getPrev(nodeID);\n        }\n\n        // The list is empty, or a smaller value than anything else in the list is being inserted\n        return nodeID;\n    }\n\n    // ----------------\n    // GENERAL HELPERS:\n    // ----------------\n\n    /**\n    @dev Checks if an expiration date has been reached\n    @param _terminationDate Integer timestamp of date to compare current timestamp with\n    @return expired Boolean indication of whether the terminationDate has passed\n    */\n    function isExpired(uint _terminationDate) constant public returns (bool expired) {\n        return (block.timestamp > _terminationDate);\n    }\n\n    /**\n    @dev Generates an identifier which associates a user and a poll together\n    @param _pollID Integer identifier associated with target poll\n    @return UUID Hash which is deterministic from _user and _pollID\n    */\n    function attrUUID(address _user, uint _pollID) public pure returns (bytes32 UUID) {\n        return keccak256(abi.encodePacked(_user, _pollID));\n    }\n}\n",
  "sourcePath": "plcr-revival/PLCRVoting.sol",
  "compiler": {
    "name": "solc",
    "version": "0.4.24+commit.e67f0147.Emscripten.clang"
  },
  "schemaVersion": "2.0.0",
  "updatedAt": "2018-09-13T03:28:54.704Z"
}