{
  "contractName": "Registry",
  "abi": [
    {
      "constant": true,
      "inputs": [],
      "name": "name",
      "outputs": [
        {
          "name": "",
          "type": "string"
        }
      ],
      "payable": false,
      "stateMutability": "view",
      "type": "function"
    },
    {
      "constant": true,
      "inputs": [],
      "name": "standardBountiesAddress",
      "outputs": [
        {
          "name": "",
          "type": "address"
        }
      ],
      "payable": false,
      "stateMutability": "view",
      "type": "function"
    },
    {
      "constant": true,
      "inputs": [
        {
          "name": "",
          "type": "uint256"
        }
      ],
      "name": "listings",
      "outputs": [
        {
          "name": "owner",
          "type": "address"
        },
        {
          "name": "bountyId",
          "type": "uint256"
        }
      ],
      "payable": false,
      "stateMutability": "view",
      "type": "function"
    },
    {
      "constant": true,
      "inputs": [],
      "name": "parameterizer",
      "outputs": [
        {
          "name": "",
          "type": "address"
        }
      ],
      "payable": false,
      "stateMutability": "view",
      "type": "function"
    },
    {
      "constant": true,
      "inputs": [],
      "name": "token",
      "outputs": [
        {
          "name": "",
          "type": "address"
        }
      ],
      "payable": false,
      "stateMutability": "view",
      "type": "function"
    },
    {
      "anonymous": false,
      "inputs": [
        {
          "indexed": true,
          "name": "listingId",
          "type": "uint256"
        },
        {
          "indexed": true,
          "name": "bountyId",
          "type": "uint256"
        },
        {
          "indexed": false,
          "name": "data",
          "type": "string"
        },
        {
          "indexed": true,
          "name": "applicant",
          "type": "address"
        }
      ],
      "name": "_Submission",
      "type": "event"
    },
    {
      "anonymous": false,
      "inputs": [
        {
          "indexed": true,
          "name": "bountyId",
          "type": "uint256"
        },
        {
          "indexed": true,
          "name": "_fulfillmentId",
          "type": "uint256"
        }
      ],
      "name": "_ListingFulfilled",
      "type": "event"
    },
    {
      "constant": false,
      "inputs": [
        {
          "name": "_token",
          "type": "address"
        },
        {
          "name": "_parameterizer",
          "type": "address"
        },
        {
          "name": "_name",
          "type": "string"
        }
      ],
      "name": "init",
      "outputs": [],
      "payable": false,
      "stateMutability": "nonpayable",
      "type": "function"
    },
    {
      "constant": false,
      "inputs": [
        {
          "name": "_data",
          "type": "string"
        }
      ],
      "name": "submit",
      "outputs": [],
      "payable": false,
      "stateMutability": "nonpayable",
      "type": "function"
    },
    {
      "constant": false,
      "inputs": [
        {
          "name": "_bountyId",
          "type": "uint256"
        },
        {
          "name": "_fulfillmentId",
          "type": "uint256"
        }
      ],
      "name": "assessFulfillment",
      "outputs": [],
      "payable": false,
      "stateMutability": "nonpayable",
      "type": "function"
    },
    {
      "constant": true,
      "inputs": [
        {
          "name": "_listingId",
          "type": "uint256"
        }
      ],
      "name": "getListingBalance",
      "outputs": [
        {
          "name": "added",
          "type": "uint256"
        }
      ],
      "payable": false,
      "stateMutability": "view",
      "type": "function"
    }
  ],
  "bytecode": "0x608060405234801561001057600080fd5b50610da9806100206000396000f300608060405260043610610099576000357c0100000000000000000000000000000000000000000000000000000000900463ffffffff16806306fdde031461009e5780635345fcf91461012e5780635c9a6d37146101855780639b6de87f1461022e578063c827755914610265578063d99a8dc3146102a6578063de74e57b146102e1578063e1e3f91514610355578063fc0c546a146103ac575b600080fd5b3480156100aa57600080fd5b506100b3610403565b6040518080602001828103825283818151815260200191508051906020019080838360005b838110156100f35780820151818401526020810190506100d8565b50505050905090810190601f1680156101205780820380516001836020036101000a031916815260200191505b509250505060405180910390f35b34801561013a57600080fd5b506101436104a1565b604051808273ffffffffffffffffffffffffffffffffffffffff1673ffffffffffffffffffffffffffffffffffffffff16815260200191505060405180910390f35b34801561019157600080fd5b5061022c600480360381019080803573ffffffffffffffffffffffffffffffffffffffff169060200190929190803573ffffffffffffffffffffffffffffffffffffffff169060200190929190803590602001908201803590602001908080601f01602080910402602001604051908101604052809392919081815260200183838082843782019150505050505091929192905050506104c7565b005b34801561023a57600080fd5b5061026360048036038101908080359060200190929190803590602001909291905050506106f1565b005b34801561027157600080fd5b50610290600480360381019080803590602001909291905050506106f5565b6040518082815260200191505060405180910390f35b3480156102b257600080fd5b506102df600480360381019080803590602001908201803590602001919091929391929390505050610826565b005b3480156102ed57600080fd5b5061030c60048036038101908080359060200190929190505050610c09565b604051808373ffffffffffffffffffffffffffffffffffffffff1673ffffffffffffffffffffffffffffffffffffffff1681526020018281526020019250505060405180910390f35b34801561036157600080fd5b5061036a610c5c565b604051808273ffffffffffffffffffffffffffffffffffffffff1673ffffffffffffffffffffffffffffffffffffffff16815260200191505060405180910390f35b3480156103b857600080fd5b506103c1610c82565b604051808273ffffffffffffffffffffffffffffffffffffffff1673ffffffffffffffffffffffffffffffffffffffff16815260200191505060405180910390f35b60038054600181600116156101000203166002900480601f0160208091040260200160405190810160405280929190818152602001828054600181600116156101000203166002900480156104995780601f1061046e57610100808354040283529160200191610499565b820191906000526020600020905b81548152906001019060200180831161047c57829003601f168201915b505050505081565b600460009054906101000a900473ffffffffffffffffffffffffffffffffffffffff1681565b60008373ffffffffffffffffffffffffffffffffffffffff161415801561052657506000600160009054906101000a900473ffffffffffffffffffffffffffffffffffffffff1673ffffffffffffffffffffffffffffffffffffffff16145b151561053157600080fd5b60008273ffffffffffffffffffffffffffffffffffffffff161415801561059057506000600260009054906101000a900473ffffffffffffffffffffffffffffffffffffffff1673ffffffffffffffffffffffffffffffffffffffff16145b151561059b57600080fd5b82600160006101000a81548173ffffffffffffffffffffffffffffffffffffffff021916908373ffffffffffffffffffffffffffffffffffffffff16021790555081600260006101000a81548173ffffffffffffffffffffffffffffffffffffffff021916908373ffffffffffffffffffffffffffffffffffffffff1602179055508060039080519060200190610633929190610ca8565b50733b0bf41b5b9df84fd6f456b6f036e5ba36e22a1c600460006101000a81548173ffffffffffffffffffffffffffffffffffffffff021916908373ffffffffffffffffffffffffffffffffffffffff160217905550600460009054906101000a900473ffffffffffffffffffffffffffffffffffffffff16600560006101000a81548173ffffffffffffffffffffffffffffffffffffffff021916908373ffffffffffffffffffffffffffffffffffffffff160217905550505050565b5050565b600080600560009054906101000a900473ffffffffffffffffffffffffffffffffffffffff1673ffffffffffffffffffffffffffffffffffffffff1663ee8c4bbf60008581548110151561074557fe5b9060005260206000209060020201600101546040518263ffffffff167c01000000000000000000000000000000000000000000000000000000000281526004018082815260200191505060c060405180830381600087803b1580156107a957600080fd5b505af11580156107bd573d6000803e3d6000fd5b505050506040513d60c08110156107d357600080fd5b810190808051906020019092919080519060200190929190805190602001909291908051906020019092919080519060200190929190805190602001909291905050509550505050505080915050919050565b600080610831610d28565b339250600560009054906101000a900473ffffffffffffffffffffffffffffffffffffffff1673ffffffffffffffffffffffffffffffffffffffff1663788acd7e306396babf6a8888600260009054906101000a900473ffffffffffffffffffffffffffffffffffffffff1673ffffffffffffffffffffffffffffffffffffffff1663693ec85e6040518163ffffffff167c010000000000000000000000000000000000000000000000000000000002815260040180806020018281038252600f8152602001807f7374616b696e67506f6f6c53697a650000000000000000000000000000000000815250602001915050602060405180830381600087803b15801561093c57600080fd5b505af1158015610950573d6000803e3d6000fd5b505050506040513d602081101561096657600080fd5b8101908080519060200190929190505050600060018060009054906101000a900473ffffffffffffffffffffffffffffffffffffffff166040518963ffffffff167c0100000000000000000000000000000000000000000000000000000000028152600401808973ffffffffffffffffffffffffffffffffffffffff1673ffffffffffffffffffffffffffffffffffffffff168152602001888152602001806020018681526020018573ffffffffffffffffffffffffffffffffffffffff168152602001841515151581526020018373ffffffffffffffffffffffffffffffffffffffff1673ffffffffffffffffffffffffffffffffffffffff168152602001828103825288888281815260200192508082843782019150509950505050505050505050602060405180830381600087803b158015610aa457600080fd5b505af1158015610ab8573d6000803e3d6000fd5b505050506040513d6020811015610ace57600080fd5b8101908080519060200190929190505050915060408051908101604052808473ffffffffffffffffffffffffffffffffffffffff1681526020018381525090506000819080600181540180825580915050906001820390600052602060002090600202016000909192909190915060008201518160000160006101000a81548173ffffffffffffffffffffffffffffffffffffffff021916908373ffffffffffffffffffffffffffffffffffffffff160217905550602082015181600101555050503373ffffffffffffffffffffffffffffffffffffffff16826001600080549050037fa3d64e41c8a1c7ec5b20e4a8ade892a9a00bc3ba8489f24a90e4c9baffb7b0af8888604051808060200182810382528484828181526020019250808284378201915050935050505060405180910390a45050505050565b600081815481101515610c1857fe5b90600052602060002090600202016000915090508060000160009054906101000a900473ffffffffffffffffffffffffffffffffffffffff16908060010154905082565b600260009054906101000a900473ffffffffffffffffffffffffffffffffffffffff1681565b600160009054906101000a900473ffffffffffffffffffffffffffffffffffffffff1681565b828054600181600116156101000203166002900490600052602060002090601f016020900481019282601f10610ce957805160ff1916838001178555610d17565b82800160010185558215610d17579182015b82811115610d16578251825591602001919060010190610cfb565b5b509050610d249190610d58565b5090565b6040805190810160405280600073ffffffffffffffffffffffffffffffffffffffff168152602001600081525090565b610d7a91905b80821115610d76576000816000905550600101610d5e565b5090565b905600a165627a7a72305820d6c5fee0d1b883eb563b319f875d6f086443e5859575efb33fa11611b8adead10029",
  "source": "pragma solidity ^0.4.11;\n\nimport \"tokens/eip20/EIP20Interface.sol\";\nimport \"./Parameterizer.sol\";\nimport \"zeppelin/math/SafeMath.sol\";\nimport \"./StandardBountiesInterface.sol\";\n\ncontract Registry {\n\n    // ------\n    // EVENTS\n    // ------\n\n    event _Submission(uint indexed listingId, uint indexed bountyId, string data, address indexed applicant);\n    event _ListingFulfilled(uint indexed bountyId, uint indexed _fulfillmentId);\n\n    using SafeMath for uint;\n\n    struct Listing {\n        address owner;          // Initial submitter of listing\n        uint bountyId;      // The issue number of the bounty corresponding to this listing\n    }\n\n    // Array of listings\n    Listing[] public listings;\n\n    // Global Variables\n    EIP20Interface public token;\n    Parameterizer public parameterizer;\n    string public name;\n\n    // Bounties Variables\n    address public standardBountiesAddress;\n    StandardBountiesInterface standardBounties;\n\n    /**\n    @dev Initializer. Can only be called once.\n    @param _token The address where the ERC20 token contract is deployed\n    */\n    function init(address _token, address _parameterizer, string _name) public {\n        require(_token != 0 && address(token) == 0);\n        require(_parameterizer != 0 && address(parameterizer) == 0);\n\n        token = EIP20Interface(_token);\n        parameterizer = Parameterizer(_parameterizer);\n        name = _name;\n\n        standardBountiesAddress = 0x3b0BF41B5b9Df84fD6F456B6f036e5bA36E22A1c;\n        standardBounties = StandardBountiesInterface(standardBountiesAddress);\n    }\n\n    // --------------------\n    // PUBLISHER INTERFACE:\n    // --------------------\n\n    /**\n    @dev                Allows a user to submit a listing. Takes tokens from user and creates\n                        new bounty for listing. Note that the bounty is not active yet.\n    @param _data        TCRO opportunity data collection requirements (see schema: https://github.com/Bounties-Network/StandardBounties/blob/master/docs/standardSchemas.md)\n    */\n    function submit(string _data) external {\n        // Sets owner\n\n        address _owner = msg.sender;\n         // Initiate bounty (dummy values for now... needs updating)\n        uint _bountyId = standardBounties.issueBounty(\n            this,\n            2528821098, // 2050, this should be controlled by governance mechanism...\n            _data,\n            parameterizer.get(\"stakingPoolSize\"),\n            0x0, // Need to update\n            true,\n            address(token)\n        );\n\n        // Add listing to listings array\n        Listing memory listing = Listing(_owner, _bountyId);\n        listings.push(listing);\n\n        emit _Submission((listings.length - 1), _bountyId, _data, msg.sender);\n    }\n\n    /**\n    @dev                  Allows a user to request assessment of a listing (bounty) fulfillment. The\n                          assessment is handled by a bounty stakers governance mechanism.\n    @param _bountyId  Number of the bounty to check the fulfillment against\n    @param _fulfillmentId Id of the fulfillment to assess\n    */\n\n    function assessFulfillment(uint _bountyId, uint _fulfillmentId) external {\n\n        // TODO: Implement PLCRVoting for bounty stakeholders to vote on fulfillment acceptance...\n\n        // Accept fulfillment\n        // standardBounties.acceptFulfillment(\n        //     _bountyId,\n        //     _fulfillmentId\n        // );\n\n        // emit _ListingFulfilled(_bountyId, _fulfillmentId);\n    }\n\n    // --------\n    // GETTERS:\n    // --------\n\n    /**\n    @dev                Returns the balance of the bounty associated with a specific listing number\n    @param _listingId The number of the listing who's balance to return\n    */\n    function getListingBalance(uint _listingId) view public returns (uint added) {\n        (,,,,,uint balance) = standardBounties.getBounty(listings[_listingId].bountyId);\n        return balance;\n    }\n}\n",
  "sourcePath": "/Users/leopoldjoy/flying-carpet/Flyingcarpet-TCR/contracts/Registry.sol",
  "compiler": {
    "name": "solc",
    "version": "0.4.24+commit.e67f0147.Emscripten.clang"
  },
  "schemaVersion": "2.0.0",
  "updatedAt": "2018-09-13T03:28:54.680Z"
}